:100000000C942A000C9447000C9447000C94470071
:100010000C9447000C9447000C9447000C94470044
:100020000C9447000C9447000C9447000C948E02EB
:100030000C9447000C9447000C9447000C94470024
:100040000C9447000C9447000C9447000C94470014
:100050000C94470011241FBECFE5D4E0DEBFCDBF16
:1000600011E0A0E6B0E0E6EDF5E102C005900D92EA
:10007000A23CB107D9F722E0A2ECB1E001C01D9289
:10008000A538B207E1F70E9449000C94E90A0C94E4
:100090000000CF93DF93CDB7DEB7C556D1090FB6B9
:1000A000F894DEBF0FBECDBF8E9A8D9A9598969824
:1000B0001ABA8FEF8BBB81E00E942E0460E081E0D2
:1000C0000E947A0380E690E00E94AB030E94B00495
:1000D0002FEF39E698E1215030409040E1F700C021
:1000E00000008E3F09F45DC064F48D3F09F062C0EA
:1000F00061E080E00E941C0480E890E00E94AB0375
:1001000046C08F3F09F444C0813009F053C061E01C
:1001100080E00E941C0481E790E00E94AB032FEF77
:1001200039E688E1215030408040E1F700C000000E
:1001300086E790E00E942D038DE08093C3010E942A
:1001400008038AE08093C3010E9408039FEF29E619
:1001500038E1915020403040E1F700C000008FEFBF
:1001600099E628E1815090402040E1F700C000006E
:1001700060E081E00E947A03CE0101960E94DC05D6
:100180008D3F11F58CEA90E00E94AB031CC0FFCFBD
:1001900061E080E00E941C048CE890E00E94AB03C8
:1001A000FFCF61E080E00E941C0489E990E00E949A
:1001B000AB03FFCF61E080E00E941C048EE990E079
:1001C0000E94AB03FFCFFFCF89EB90E00E94AB030F
:1001D00061E080E00E941C04CE0101960E94AB0306
:1001E0003FEF89E698E1315080409040E1F700C050
:1001F000000080EC90E00E942D038DE08093C3010D
:100200000E9408038AE08093C3010E9408032FEF35
:1002100039E688E1215030408040E1F700C000001D
:1002200060E081E00E947A03CE01C1960E946B05D6
:10023000811105C08CEA90E00E94AB03FFCFCE0194
:10024000C1960E94AB039FEF29E638E19150204010
:100250003040E1F700C0000080EC90E00E942D03E8
:100260008DE08093C3010E9408038AE08093C3015C
:100270000E9408038FEF99E628E1815090402040CA
:10028000E1F700C0000082ED90E00E942D038DE0B8
:100290008093C3010E9408038AE08093C3010E94F7
:1002A00008033FEF89E698E1315080409040E1F744
:1002B00000C000008CED90E00E942D038DE0809343
:1002C000C3010E9408038AE08093C3010E940803CF
:1002D0002FEF39E688E1215030408040E1F700C03F
:1002E000000000E010E00E944D0360E081E00E9409
:1002F0007A0360E080E00E941C048AEE90E00E9495
:10030000AB0361E080E00E941C048AEF90E00E9451
:10031000AB0361E084E00E941C0461E070E0812F87
:1003200090E00E94D10361E087E00E941C048EEF00
:1003300090E00E94AB0361E08EE00E941C0461E04B
:1003400070E0802F90E00E94D103CE018B599F4F27
:100350000E944406813009F443C0C899F6CF61E099
:1003600084E00E941C0462E070E080E090E00E9463
:10037000D103C99933C061E084E00E941C0462E0AB
:1003800070E081E090E00E94D103CA990CC061E066
:1003900084E00E941C0462E070E082E090E00E9431
:1003A000D10312E001C011E0CB99CFCF61E084E02E
:1003B0000E941C0462E070E083E090E00E94D103A0
:1003C00061E08EE00E941C0462E070E080E090E05A
:1003D0000E94D103959800E013E0B7CF10E0B5CFAD
:1003E00060E00E947A0360E080E00E941C0485E0E7
:1003F00091E00E94AB03BE016F5A7F4FA6968FAD6E
:10040000A6970E948306813009F04BC061E080E02E
:100410000E941C04CE018F5A9F4F0E94AB0348E0FC
:1004200050E066E171E0CE018F5A9F4F0E940208B2
:10043000892BB1F4959A61E08EE00E941C0461E082
:1004400070E081E090E00E94D1039FEF23ED30E364
:10045000915020403040E1F700C0000001E032C080
:1004600049E050E06FE171E0CE018F5A9F4F0E944A
:100470000208892B39F5959861E08EE00E941C04F2
:1004800061E070E080E090E00E94D1038FEF93ED97
:1004900020E3815090402040E1F700C0000000E0E0
:1004A00011C060E080E00E941C0489E291E00E949B
:1004B000AB033FEF8DE399E4315080409040E1F78A
:1004C00000C00000A6968FADA6970E94FB05813064
:1004D00009F409CF60E081E00E947A0360E080E0E7
:1004E0000E941C048BE391E00E94AB032FEF33EDDD
:1004F00080E3215030408040E1F700C00000F3CE9F
:10050000FFCF2FEF2093C4012093C20190BD89B982
:1005100086E880BD88E98AB9789408951F920F9281
:100520000FB60F9211242F933F934F938F939F9366
:10053000EF93FF934CB18091C4018F3321F48091EC
:10054000C201882371F08091C4012091C2019927D2
:1005500087FD90950196332727FD309582179307E5
:1005600059F48091C2018F5F8093C2018091C201D2
:10057000803411F41092C2018091C4018F3319F4B8
:100580001092C40105C08091C4018F5F8093C401A3
:10059000E091C401FF27E7FDF095EB53FE4F408348
:1005A0008091C2018F3F11F41092C201FF91EF912F
:1005B0009F918F914F913F912F910F900FBE0F9070
:1005C0001F9018958091C2018F3F01F1E091C20107
:1005D000FF27E7FDF095EB53FE4F80812091C2018C
:1005E0009091C401291306C09FEF9093C40190938A
:1005F000C20108959091C2019F5F9093C2019091B2
:10060000C201903421F41092C201089580E008954F
:100610005D9BFECF8CB908958091C2018F3FC9F0D8
:100620009091C2018091C401981734F48091C40163
:100630009091C2018F5F0BC09091C2018091C40163
:1006400089174CF48091C4019091C2018F5B891B82
:10065000089580E0089581E00895CF93DF93EC0141
:100660008991882319F00E940803FACFDF91CF9176
:1006700008950F931F93CF93DF938B01EC01080F25
:10068000191FC017D10721F00E94E2028993F9CF08
:10069000DF91CF911F910F9108950E940C03882341
:1006A00019F00E94E202F9CF089587B38F7087BBDB
:1006B000C29AC09800C000C0C19A00C000C086B3F2
:1006C000807F00C000C0C19892E09A95F1F700C009
:1006D000C19A00C000C096B300C000C0C19892E0AB
:1006E0009A95F1F700C087FDE7CFC29887B3806F76
:1006F00087BB0895282F22952F708F70611102C03B
:10070000C09801C0C09A00C000C0C19A98B340E12F
:10071000249F900111249F70922B98BB92E09A9590
:10072000F1F700C0C19832E03A95F1F700C0C19AE4
:1007300028B340E1849FC00111242F70282B28BBCF
:1007400082E08A95F1F700C0C19892E09A95F1F79E
:1007500000C00C9455030F931F93CF93DF93EC01CC
:1007600088818823C9F0853281F48E010F5F1F4F85
:100770008981805361E0883028F085E20E947A0305
:1007800061E089810E947A0304C061E00E947A03DB
:100790008E01E8012196E4CFDF91CF911F910F9157
:1007A0000895EF92FF920F931F93CF93DF9300D0A2
:1007B00000D01F92CDB7DEB79B01AE014F5F5F4FF8
:1007C0007A0145E0F70111924A95E9F7FE01369664
:1007D0000AE010E0009731F0B8010E947F07829391
:1007E000CB01F8CF2F3FFFEF3F0741F4F7018F0117
:1007F0000E191F0981918823D1F304C005E010E090
:10080000021B130B053011055CF4F701E00FF11F1B
:10081000808161E0805D0E947A030F5F1F4FF2CFFD
:100820000F900F900F900F900F90DF91CF911F912D
:100830000F91FF90EF900895843178F4623031F099
:10084000633031F0613029F4806403C08C5E01C0F4
:100850008C5A60E080680C947A030895CF93DF93FC
:100860001F92CDB7DEB7EFE5FAEE3197F1F700C092
:10087000000097B3906F97BBB99AB89ABA9A98B399
:100880009F7098BBC198C298C09800C00000C19AE0
:10089000C59AF2E0FA95F1F700C0C19892E09A95F6
:1008A000F1F700C089830E94550360E089818C6064
:1008B0000E947A0360E088E20E947A0360E080E4AC
:1008C0000E947A0360E080E00F90DF91CF910C945A
:1008D0001C04FF920F931F93CF93DF93EC010E94B0
:1008E0002D038DE00E940803FE0101900020E9F72E
:1008F000FE2EFC1A9AE0F99E80011124C0E0D0E09F
:10090000C017D107A1F00E940C038F1540F4219667
:100910008FE19EE40197F1F700C00000F1CF6F2D49
:1009200070E085E092E00E94390381E001C08DEF24
:10093000DF91CF911F910F91FF9008954250DC01FC
:100940001296FB0182E0861B982F9E0F941730F4BD
:100950002D9191912917C1F38EEF089581E00895AB
:10096000CF93DF9383E390E00E9481028AE491E0D9
:100970000E946904CAE0D0E00E940C03863068F44B
:100980008FE19EE40197F1F700C0000021972097C6
:1009900099F78DEFDF91CF91089566E070E085E0E3
:1009A00092E00E94390346E06DE471E085E092E058
:1009B000DF91CF910C949E04EF92FF920F931F93BF
:1009C000CF93DF938C01C0E0D0E0F12C0E940C03A8
:1009D00081110BC0C017D10740F421968FEC97E02E
:1009E0000197F1F700C00000F1CFC017D107A1F0C7
:1009F0000E94E202EF2DF0E0EB5FFD4F8083EE24DA
:100A0000E394EF0C8D3031F4FF2021F00E944D0370
:100A10008E2D03C0FE2CDACF80E0DF91CF911F91A5
:100A20000F91FF90EF900895CF93DF9380E591E0D1
:100A30000E946904CAE0D0E00E940C03843158F49B
:100A40008FE19EE40197F1F700C000002197209705
:100A500099F78DEF15C064E170E085E092E00E94A7
:100A6000390380911002813331F0823331F08533C4
:100A700031F485E005C081E003C082E001C083E677
:100A8000DF91CF910895CF93DF930E944D0389E5C5
:100A900091E00E946904CEE1D0E00E940C0386310F
:100AA00058F48FE19EE40197F1F700C00000219710
:100AB000209799F78DEF0CC066E170E085E092E039
:100AC0000E94390381E090911202913309F080E095
:100AD000DF91CF9108950F931F93CF93DF93EC0194
:100AE0000E944D0384E691E00E94690488EE93E041
:100AF0000E94DC048823E1F062E270E085E092E08D
:100B00000E94D8078C010F5F1F4F62E270E0C8019E
:100B10000E94D807FC011082B801CE010E94E307B1
:100B2000FE0101900020E9F731978E2F8C1B01C048
:100B30008DEFDF91CF911F910F910895CF93DF93A8
:100B4000EC010E944D038DE691E00E94690488EE5D
:100B500093E00E94DC04882361F0E82FF0E0EC5F72
:100B6000FD4F108267E072E0CE010E94E30781E052
:100B700001C08DEFDF91CF910895CF93DF93EC010A
:100B80000E944D0384E791E00E94690488EE93E09F
:100B90000E94DC04882361F0E82FF0E0EC5FFD4F59
:100BA000108267E072E0CE010E94E30781E001C09D
:100BB0008DEFDF91CF910895CF93DF93EC010E94E9
:100BC0004D038BE791E00E94690488EE93E00E9458
:100BD000DC04882361F0E82FF0E0EC5FFD4F108229
:100BE00067E072E0CE010E94E30781E001C08DEF73
:100BF000DF91CF9108950F931F93CF93DF93CDB7DC
:100C0000DEB761970FB6F894DEBF0FBECDBF898BFC
:100C10000E944D031F9289898F9382E891E09F93F0
:100C20008F938E010F5F1F4F1F930F930E94180821
:100C3000C8010E94690488EE93E00E94DC040F90D2
:100C40000F900F900F900F900F90882379F0E82F5E
:100C5000F0E0EC5FFD4F10826DE471E087E092E020
:100C60000E94C507892B21F481E003C08DEF01C0EC
:100C70008EEF61960FB6F894DEBF0FBECDBFDF9149
:100C8000CF911F910F9108950F931F93CF93DF93EF
:100C900000D000D0CDB7DEB78C018AEF90E00E9483
:100CA000DC04882321F1E82FF0E0EC5FFD4F108297
:100CB00046E050E06DE871E087E092E00E94EA07CC
:100CC000892BB9F46CE270E085E092E00E94D807CD
:100CD000BC016F5F7F4FCE0101960E94E307CE01FA
:100CE00001960E94A707F801808381E003C08DEF81
:100CF00001C08EEF0F900F900F900F90DF91CF916A
:100D00001F910F910895EF92FF920F931F93CF932E
:100D1000DF93CDB7DEB761970FB6F894DEBF0FBE95
:100D2000CDBF7B01898B0E944D031F9289898F93D0
:100D300024E931E03F932F938E010F5F1F4F1F93E4
:100D40000F930E941808C8010E94690488EE93E07E
:100D50000E94DC040F900F900F900F900F900F9057
:100D6000811102C08DEF2AC0E82FF0E0EC5FFD4F4B
:100D700010826FE971E087E092E00E94C507892B3D
:100D8000D1F06DE471E087E092E00E94C507892B05
:100D9000A1F088EE93E00E94DC04882319F3E82F89
:100DA000F0E0EC5FFD4F108266E072E0C7010E9448
:100DB000E30781E003C084E601C085E661960FB6D3
:100DC000F894DEBF0FBECDBFDF91CF911F910F9181
:100DD000FF90EF900895CF92DF92EF92FF920F93E2
:100DE0001F93CF93DF93CDB7DEB76B970FB6F89411
:100DF000DEBF0FBECDBF7B016A018A8F9B8F0E9431
:100E00004D039B8D9F938A8D8F938FEA91E09F93E3
:100E10008F938E010F5F1F4F1F930F930E9418082F
:100E200082E28987F80101900020E9F73197E01B01
:100E3000F10BFF27D801AE0FBF1F8C93EC0FFD1FE6
:100E40001282C8010E9469042FEF80E792E02150CE
:100E500080409040E1F700C00000C7010E942D03D0
:100E60008AE10E9408030F900F900F900F900F904F
:100E70000F900E940C03F70101900020E9F7BF01D9
:100E80006E197F096C5F7F4F90E08617970788F394
:100E900085E092E00E94390380E797E10E94DC043C
:100EA0008823E9F0E82FF0E0EC5FFD4F108245E089
:100EB00050E06BEB71E087E092E00E94EA07892B3B
:100EC00051F48DE092E00E94A707F60180830E9412
:100ED0004D0381E005C00E944D038EEF01C08DEFF0
:100EE0006B960FB6F894DEBF0FBECDBFDF91CF91EA
:100EF0001F910F91FF90EF90DF90CF90089597FB97
:100F0000072E16F4009407D077FD09D00E949307AE
:100F100007FC05D03EF4909581959F4F08957095FC
:100F200061957F4F0895AA1BBB1B51E107C0AA1F03
:100F3000BB1FA617B70710F0A61BB70B881F991F7A
:100F40005A95A9F780959095BC01CD010895FC01B3
:100F500088279927E89421912032E9F3293010F06D
:100F60002E30C8F32B3241F02D3239F4689404C08E
:100F70000E941008820F911D219120532A30C0F346
:100F80001EF4909581959F4F0895FB01DC018D9192
:100F900081341CF08B350CF4805E619161341CF05F
:100FA0006B350CF4605E861B611189F3990B089513
:100FB000FC018191861721F08823D9F7992708959C
:100FC0003197CF010895FB01DC0101900D920020C3
:100FD000E1F70895FB01DC014150504088F08D910C
:100FE00081341CF08B350CF4805E619161341CF00F
:100FF0006B350CF4605E861B611171F3990B0895DB
:10100000881BFCCFFB01DC014150504030F08D913A
:101010000190801919F40020B9F7881B990B0895E5
:101020007AE0979F902D879F802D910D1124089530
:10103000AEE0B0E0EEE1F8E00C94C00A0D891E8944
:1010400086E08C831A8309838FEF9FE79E838D83CD
:10105000AE01475E5F4F6F89788DCE0101960E9489
:101060003A08EF81F885E00FF11F10822E96E4E038
:101070000C94DC0AACE0B0E0E0E4F8E00C94B20AD6
:101080007C016B018A01FC0117821682838181FF3A
:10109000BDC1CE0101964C01F7019381F60193FD8C
:1010A000859193FF81916F01882309F4ABC185324B
:1010B00039F493FD859193FF81916F01853229F475
:1010C000B70190E00E94220AE7CF512C312C20E09A
:1010D0002032A0F48B3269F030F4803259F0833240
:1010E00069F420612CC08D3239F0803339F42160ED
:1010F00026C02260246023C0286021C027FD27C0AD
:1011000030ED380F3A3078F426FF06C0FAE05F9EE3
:10111000300D1124532E13C08AE0389E300D112457
:10112000332E20620CC08E3221F426FD6BC1206468
:1011300006C08C3611F4206802C0883641F4F601EE
:1011400093FD859193FF81916F018111C1CF982FFC
:101150009F7D9554933028F40C5F1F4FFFE3F98374
:101160000DC0833631F0833771F0833509F05BC0F1
:1011700022C0F801808189830E5F1F4F442443946D
:10118000512C540115C03801F2E06F0E711CF801AA
:10119000A080B18026FF03C0652D70E002C06FEF14
:1011A0007FEFC5012C870E94170A2C0183012C8533
:1011B0002F77222E17C03801F2E06F0E711CF80154
:1011C000A080B18026FF03C0652D70E002C06FEFE4
:1011D0007FEFC5012C870E940C0A2C012C8520680A
:1011E000222E830123FC1BC0832D90E04816590654
:1011F000B0F4B70180E290E00E94220A3A94F4CF62
:10120000F50127FC859127FE81915F01B70190E0F0
:101210000E94220A31103A94F1E04F1A5108411409
:10122000510471F7E5C0843611F0893639F5F801BB
:1012300027FF07C060817181828193810C5F1F4FFE
:1012400008C060817181882777FD8095982F0E5F97
:101250001F4F2F76B22E97FF09C0909580957095FD
:1012600061957F4F8F4F9F4F2068B22E2AE030E06C
:10127000A4010E94540AA82EA81844C0853729F456
:101280002F7EB22E2AE030E025C0F22FF97FBF2E4C
:101290008F36C1F018F4883579F0B4C0803719F072
:1012A000883721F0AFC02F2F2061B22EB4FE0DC0C1
:1012B0008B2D8460B82E09C024FF0AC09F2F966032
:1012C000B92E06C028E030E005C020E130E002C0C1
:1012D00020E132E0F801B7FE07C0608171818281B0
:1012E00093810C5F1F4F06C06081718180E090E0A8
:1012F0000E5F1F4FA4010E94540AA82EA818FB2DB0
:10130000FF77BF2EB6FE0BC02B2D2E7FA51450F4F9
:10131000B4FE0AC0B2FC08C02B2D2E7E05C07A2C6C
:101320002B2D03C07A2C01C0752C24FF0DC0FE01AB
:10133000EA0DF11D8081803311F4297E09C022FF5E
:1013400006C07394739404C0822F867809F0739456
:1013500023FD13C020FF06C05A2C731418F4530C3D
:101360005718732C731468F4B70180E290E02C874F
:101370000E94220A73942C85F5CF731410F4371849
:1013800001C0312C24FF12C0B70180E390E02C870C
:101390000E94220A2C8522FF17C021FF03C088E586
:1013A00090E002C088E790E0B7010CC0822F8678F9
:1013B00059F021FD02C080E201C08BE227FD8DE2E1
:1013C000B70190E00E94220AA51438F4B70180E327
:1013D00090E00E94220A5A94F7CFAA94F401EA0DF1
:1013E000F11D8081B70190E00E94220AA110F5CF83
:1013F000332009F451CEB70180E290E00E94220A26
:101400003A94F6CFF7018681978102C08FEF9FEF64
:101410002C96E2E10C94CE0AFC01059061507040DC
:101420000110D8F7809590958E0F9F1F0895FC01AD
:101430006150704001900110D8F7809590958E0F03
:101440009F1F08950F931F93CF93DF93182F092F9A
:10145000EB018B8181FD03C08FEF9FEF20C082FFE6
:1014600010C04E815F812C813D81421753077CF46F
:10147000E881F9819F012F5F3F4F398328831083D3
:1014800006C0E885F985812F0995892B29F72E81DA
:101490003F812F5F3F4F3F832E83812F902FDF911E
:1014A000CF911F910F910895FA01AA27283051F189
:1014B000203181F1E8946F936E7F6E5F7F4F8F4F85
:1014C0009F4FAF4FB1E03ED0B4E03CD0670F781FE4
:1014D000891F9A1FA11D680F791F8A1F911DA11DC9
:1014E0006A0F711D811D911DA11D20D009F4689402
:1014F0003F912AE0269F11243019305D3193DEF6AA
:10150000CF010895462F4770405D4193B3E00FD05F
:10151000C9F7F6CF462F4F70405D4A3318F0495D4A
:1015200031FD4052419302D0A9F7EACFB4E0A6952D
:101530009795879577956795BA95C9F7009761054F
:10154000710508959B01AC010A2E069457954795A5
:1015500037952795BA95C9F7620F731F841F951F9A
:10156000A01D08952F923F924F925F926F927F92AB
:101570008F929F92AF92BF92CF92DF92EF92FF92A3
:101580000F931F93CF93DF93CDB7DEB7CA1BDB0B4F
:101590000FB6F894DEBF0FBECDBF09942A883988F4
:1015A00048885F846E847D848C849B84AA84B984FB
:1015B000C884DF80EE80FD800C811B81AA81B98107
:1015C000CE0FD11D0FB6F894DEBF0FBECDBFED011B
:0615D0000895F894FFCF1E
:1015D600496E697469616C697A696E67202E2E2E70
:1015E600004F4B20210041542B434D47443D3600CC
:1015F6004E6F20726573706F6E736500496E76204C
:10160600726573706F6E7365004661696C00556E26
:101616006B6E6F776E204572726F7200436F6D6DE1
:10162600204572726F722021004D6F64656C3A001E
:1016360041542B434E4D493D322C312C302C302C0D
:10164600300041542B434D47463D310041542B4316
:101656005343533D2247534D220057616974696EC7
:101666006720666F72206D7367004C766C004D5F65
:1016760073746174004D53472052656365697665DE
:101686006420202020004D4F544F52204F4E004DD5
:101696004F544F52204F46460045727220526561A4
:1016A60064696E67204D736720210044656C65741C
:1016B600696E67204D73672021004154004F4B002F
:1016C60041542B435245473F0041542B43534D4908
:1016D6004E533F0041542B4353504E3F0041542B31
:1016E60047534E0041542B474D490041542B474D1B
:1016F6004D0041542B434D47443D2564002B434D3B
:1017060054493A0041542B434D47523D2564002B22
:10171600434D53204552524F523A203531370041FE
:10172600542B434D47533D20257300434D47533AB1
:021736000000B1
:00000001FF
